{
  "contractName": "MyExampleBuyingContract",
  "abi": [
    {
      "constant": true,
      "inputs": [],
      "name": "bid",
      "outputs": [
        {
          "name": "",
          "type": "uint256"
        }
      ],
      "payable": false,
      "stateMutability": "view",
      "type": "function"
    },
    {
      "inputs": [
        {
          "name": "pepc",
          "type": "string"
        }
      ],
      "payable": false,
      "stateMutability": "nonpayable",
      "type": "constructor"
    },
    {
      "constant": false,
      "inputs": [],
      "name": "placeBid",
      "outputs": [],
      "payable": false,
      "stateMutability": "nonpayable",
      "type": "function"
    },
    {
      "constant": false,
      "inputs": [],
      "name": "accept",
      "outputs": [],
      "payable": true,
      "stateMutability": "payable",
      "type": "function"
    },
    {
      "constant": false,
      "inputs": [
        {
          "name": "epc",
          "type": "string"
        }
      ],
      "name": "commissionedProduct",
      "outputs": [],
      "payable": false,
      "stateMutability": "nonpayable",
      "type": "function"
    },
    {
      "constant": false,
      "inputs": [],
      "name": "finalize",
      "outputs": [],
      "payable": false,
      "stateMutability": "nonpayable",
      "type": "function"
    },
    {
      "constant": false,
      "inputs": [],
      "name": "getCommissionedProduct",
      "outputs": [
        {
          "name": "",
          "type": "string"
        }
      ],
      "payable": false,
      "stateMutability": "nonpayable",
      "type": "function"
    },
    {
      "constant": false,
      "inputs": [],
      "name": "getAccepted",
      "outputs": [
        {
          "name": "",
          "type": "bool"
        }
      ],
      "payable": false,
      "stateMutability": "nonpayable",
      "type": "function"
    },
    {
      "constant": false,
      "inputs": [],
      "name": "getBid",
      "outputs": [
        {
          "name": "",
          "type": "uint256"
        }
      ],
      "payable": false,
      "stateMutability": "nonpayable",
      "type": "function"
    },
    {
      "constant": false,
      "inputs": [],
      "name": "getBuyer",
      "outputs": [
        {
          "name": "",
          "type": "address"
        }
      ],
      "payable": false,
      "stateMutability": "nonpayable",
      "type": "function"
    }
  ],
  "bytecode": "0x608060405234801561001057600080fd5b50604051610a0a380380610a0a8339810180604052602081101561003357600080fd5b81019080805164010000000081111561004b57600080fd5b8281019050602081018481111561006157600080fd5b815185600182028301116401000000008211171561007e57600080fd5b5050929190505050737c1fceaa36036a7f9c90842d28dbe4fcc453f65a600260006101000a81548173ffffffffffffffffffffffffffffffffffffffff021916908373ffffffffffffffffffffffffffffffffffffffff16021790555080600090805190602001906100f1929190610113565b506000600560006101000a81548160ff021916908315150217905550506101b8565b828054600181600116156101000203166002900490600052602060002090601f016020900481019282601f1061015457805160ff1916838001178555610182565b82800160010185558215610182579182015b82811115610181578251825591602001919060010190610166565b5b50905061018f9190610193565b5090565b6101b591905b808211156101b1576000816000905550600101610199565b5090565b90565b610843806101c76000396000f3fe6080604052600436106100865760003560e01c80634bf9ae2e116100595780634bf9ae2e14610102578063603daf9a146101ca578063c170a77b14610221578063ecfc7ecc146102b1578063f196475a146102c857610086565b8063099a019d1461008b5780631998aeef146100b65780632852b71c146100e15780634bb278f3146100eb575b600080fd5b34801561009757600080fd5b506100a06102f7565b6040518082815260200191505060405180910390f35b3480156100c257600080fd5b506100cb610301565b6040518082815260200191505060405180910390f35b6100e9610307565b005b3480156100f757600080fd5b50610100610448565b005b34801561010e57600080fd5b506101c86004803603602081101561012557600080fd5b810190808035906020019064010000000081111561014257600080fd5b82018360208201111561015457600080fd5b8035906020019184600183028401116401000000008311171561017657600080fd5b91908080601f016020809104026020016040519081016040528093929190818152602001838380828437600081840152601f19601f82011690508083019250505050505050919291929050505061050c565b005b3480156101d657600080fd5b506101df6105d2565b604051808273ffffffffffffffffffffffffffffffffffffffff1673ffffffffffffffffffffffffffffffffffffffff16815260200191505060405180910390f35b34801561022d57600080fd5b506102366105fc565b6040518080602001828103825283818151815260200191508051906020019080838360005b8381101561027657808201518184015260208101905061025b565b50505050905090810190601f1680156102a35780820380516001836020036101000a031916815260200191505b509250505060405180910390f35b3480156102bd57600080fd5b506102c661069e565b005b3480156102d457600080fd5b506102dd610705565b604051808215151515815260200191505060405180910390f35b6000600454905090565b60045481565b600260009054906101000a900473ffffffffffffffffffffffffffffffffffffffff1673ffffffffffffffffffffffffffffffffffffffff163373ffffffffffffffffffffffffffffffffffffffff1614156103f5576004543410156103d5576040517f08c379a00000000000000000000000000000000000000000000000000000000081526004018080602001828103825260118152602001807f4e6f7420656e6f7567682065746865727300000000000000000000000000000081525060200191505060405180910390fd5b6001600560006101000a81548160ff021916908315150217905550610446565b6040517f08c379a000000000000000000000000000000000000000000000000000000000815260040180806020018281038252602b8152602001806107c2602b913960400191505060405180910390fd5b565b600260009054906101000a900473ffffffffffffffffffffffffffffffffffffffff1673ffffffffffffffffffffffffffffffffffffffff163373ffffffffffffffffffffffffffffffffffffffff16141561050a57600260009054906101000a900473ffffffffffffffffffffffffffffffffffffffff1673ffffffffffffffffffffffffffffffffffffffff166108fc6004549081150290604051600060405180830381858888f19350505050158015610508573d6000803e3d6000fd5b505b565b600360009054906101000a900473ffffffffffffffffffffffffffffffffffffffff1673ffffffffffffffffffffffffffffffffffffffff163373ffffffffffffffffffffffffffffffffffffffff16141561057e57806001908051906020019061057892919061071c565b506105cf565b6040517f08c379a000000000000000000000000000000000000000000000000000000000815260040180806020018281038252602b8152602001806107ed602b913960400191505060405180910390fd5b50565b6000600360009054906101000a900473ffffffffffffffffffffffffffffffffffffffff16905090565b606060018054600181600116156101000203166002900480601f0160208091040260200160405190810160405280929190818152602001828054600181600116156101000203166002900480156106945780601f1061066957610100808354040283529160200191610694565b820191906000526020600020905b81548152906001019060200180831161067757829003601f168201915b5050505050905090565b600560009054906101000a900460ff166107035733600360006101000a81548173ffffffffffffffffffffffffffffffffffffffff021916908373ffffffffffffffffffffffffffffffffffffffff160217905550670de0b6b3a76400006004819055505b565b6000600560009054906101000a900460ff16905090565b828054600181600116156101000203166002900490600052602060002090601f016020900481019282601f1061075d57805160ff191683800117855561078b565b8280016001018555821561078b579182015b8281111561078a57825182559160200191906001019061076f565b5b509050610798919061079c565b5090565b6107be91905b808211156107ba5760008160009055506001016107a2565b5090565b9056fe4f6e6c7920636f6e7472616374206f776e65722063616e2063616c6c20746869732066756e6374696f6e2e4f6e6c792073656c6c65722063616e207365742074686520636f6d6d697373696f6e656450726f64756374a165627a7a723058206b5a50032f1bc376dc0ba1a31a730d70ea659ae05df526e4928188e4699ae4730029",
  "source": "pragma solidity ^0.5;\n\ncontract MyExampleBuyingContract {\n\n    string productrequest_epc; \n        \n    string productdelivery_epc; \n    \n    address payable owner;\n\n    address payable buyer; \n\n    uint public bid;\n\n    bool private _accepted_by_owner; \n\n    constructor(string memory pepc) public {\n        owner  = address(0x7C1fceaa36036A7f9c90842D28DbE4FCc453F65a); \n        productrequest_epc = pepc; \n        _accepted_by_owner = false;\n    }\n\n    function placeBid() public {\n        if (! _accepted_by_owner) {\n            buyer = msg.sender; \n            bid = 1000000000000000000;\n        }\n    }\n\n    function accept() public payable {\n        if (msg.sender == owner) {\n            if (msg.value < bid) {\n                revert(\"Not enough ethers\");\n            } else {\n                _accepted_by_owner = true; \n            }\n        } else {\n            revert(\"Only contract owner can call this function.\") ;  \n        }\n    }\n\n    function commissionedProduct(string memory epc) public {\n        if (msg.sender == buyer) {\n            productdelivery_epc = epc;\n        } else {\n            revert(\"Only seller can set the commissionedProduct\");\n        }\n    }\n\n    function finalize() public {\n        if (msg.sender == owner) {\n            owner.transfer(bid);\n\n\t    // Uncomment next line to selfdestruct contract and send \n            // remaining Ethers back to the owner.\n            // Warning: if contract selfdestructs, it's no longer callable\n            // (even not possible to get balances etc.)\n            // selfdestruct(owner);\n        }\n    }\n\n    function getCommissionedProduct() public returns (string memory) {\n        return productdelivery_epc;\n    }\n\n    function getAccepted() public returns (bool) {\n        return _accepted_by_owner;\n    }\n\n    function getBid() public returns (uint) {\n        return bid;\n    }\n\n    function getBuyer() public returns (address) {\n        return buyer;\n    }\n}\n",
  "sourcePath": "/home/pi/dev/ethereum/contracts/contract.sol",
  "compiler": {
    "name": "solc",
    "version": "0.5.8+commit.23d335f2.Emscripten.clang"
  },
  "schemaVersion": "3.0.15",
  "updatedAt": "2019-09-07T11:00:55.514Z",
  "devdoc": {
    "methods": {}
  },
  "userdoc": {
    "methods": {}
  }
}